:020000040800F2
:1000000000000220F15F00084118000849180008AC
:100010005118000859180008611800080000000075
:10002000000000000000000000000000F15B00087C
:100030006918000800000000415E0008C55600086D
:10004000416000084160000841600008416000080C
:1000500041600008416000084160000841600008FC
:1000600041600008416000084160000841600008EC
:1000700041600008416000084160000841600008DC
:100080007718000841600008416000080000000087
:1000900000000000000000000000000041600008B7
:1000A00041600008416000084160000841600008AC
:1000B000416000084160000841600008416000089C
:1000C000416000084160000841600008416000088C
:1000D0004160000841600008416000080000000025
:1000E0004160000841600008416000080000000015
:1000F0000000000000000000000000004160000857
:1001000000000000416000088518000841600008F8
:1001100000000000000000000000000000000000DF
:10012000416000084160000841600008416000082B
:100130004160000800000000000000000000000016
:100140000000000000000000000000004160000806
:1001500041600008416000084160000841600008FB
:10016000416000084160000800000000000000003D
:10017000000000000000000000000000000000007F
:1001800000000000416000080000000000000000C6
:08019000416000084160000815
:1001A0004FEA4102B2F1E04324BFB3F5001CDCF199
:1001B000FE5C0DD901F0004C4FEAC0024CEA5070D1
:1001C000B2F1004F40EB830008BF20F00100704700
:1001D00011F0804F21D113F13872BCBF01F0004003
:1001E000704741F480114FEA5252C2F11802C2F135
:1001F000200C10FA0CF320FA02F018BF40F00100B6
:100200004FEAC1234FEAD32303FA0CFC40EA0C0067
:1002100023FA02F34FEA4303CCE77FEA625307D1A4
:1002200050EA01331EBF4FF0FE4040F440007047DB
:1002300001F0004040F0FE4040F40000704700BF75
:1002400053B94AB9002908BF00281CBF4FF0FF313D
:100250004FF0FF3000F00CB8ADF1080C6DE904CEA2
:1002600005F0F0FEDDF804E0DDE9022304B070479C
:10027000704700BF844641EA000313F003036DD1C9
:10028000403A41D351F8043B40F8043B51F8043B59
:1002900040F8043B51F8043B40F8043B51F8043B60
:1002A00040F8043B51F8043B40F8043B51F8043B50
:1002B00040F8043B51F8043B40F8043B51F8043B40
:1002C00040F8043B51F8043B40F8043B51F8043B30
:1002D00040F8043B51F8043B40F8043B51F8043B20
:1002E00040F8043B51F8043B40F8043B51F8043B10
:1002F00040F8043B51F8043B40F8043B51F8043B00
:1003000040F8043B403ABDD2303211D351F8043B9F
:1003100040F8043B51F8043B40F8043B51F8043BDF
:1003200040F8043B51F8043B40F8043B103AEDD24E
:100330000C3205D351F8043B40F8043B043AF9D29F
:10034000043208D0D2071CBF11F8013B00F8013B72
:1003500001D30B8803806046704700BF082A13D37F
:100360008B078DD010F003038AD0C3F10403D21A97
:10037000DB071CBF11F8013B00F8013B80D331F8CB
:10038000023B20F8023B7BE7043AD9D3013A11F84B
:10039000013B00F8013BF9D20B7803704B784370B6
:1003A0008B788370604670470348044B834202D0C9
:1003B000034B03B1184770471800002018000020B5
:1003C000000000000548064B1B1AD90F01EBA301E2
:1003D000491002D0034B03B11847704718000020A2
:1003E000180000200000000010B5064C237843B927
:1003F000FFF7DAFF044B13B10448AFF30080012389
:10040000237010BD1800002000000000C464000824
:1004100008B5054B1BB105490548AFF30080BDE8A1
:100420000840FFF7CFBF00BF000000001C00002005
:10043000C464000880B584B000AF78607B681B6836
:10044000FB60FB680133BB6011E0FB689B000F4A57
:100450001344184600F024FC0D4B1B68002B0CD1F4
:10046000BB68012B02D100F089F900E000BF094B05
:100470001B78DBB2002BE8D100E000BF002000F0C9
:1004800095FB002318461037BD4680BD4000002074
:10049000680000200000002080B582B000AF7860C6
:1004A000194B1B681B68002B0CBF01230023DBB218
:1004B0001A46164B1A7017E0154800F0F1FB124B64
:1004C0001B685B79002B02D1124800F007FC00F09A
:1004D0000DF90D4B1B681B68002B14BF0123002373
:1004E000DBB21A460C4B1A70084B1B78DBB2002BA0
:1004F000E2D1786800F012F8002000F057FB0023EA
:1005000018460837BD4680BD086500080000002079
:100510003C000020400000203400002090B58BB04B
:1005200004AF7860374B01221A6000237B612EE014
:100530007B699B00344A1344184600F0CFFB034606
:10054000002B0BD04FF0500383F31188BFF36F8F54
:10055000BFF34F8F3B6100BF00BFFDE77B699B008E
:10056000294A1344184600F0D7FB0346002B0BD052
:100570004FF0500383F31188BFF36F8FBFF34F8F9A
:10058000FB6000BF00BFFDE77B6901337B617B69D6
:10059000002BCDDD00237B6123E01C497A691346E3
:1005A000DB009B1A9B000B44194A03926C4603F133
:1005B000100207CA84E807000FCB00F002FB0346D5
:1005C000002B0BD04FF0500383F31188BFF36F8FD4
:1005D000BFF34F8FBB6000BF00BFFDE77B690133F6
:1005E0007B617B69002BD8DD0A4B00221A7000F07A
:1005F00029F9094800F072FB002318461C37BD4654
:1006000090BD00BF68000020400000206C0000206A
:1006100064000020000000203800002000000000DE
:1006200080B582B000AF78603960134B27221A6022
:1006300001F03CFF00F0A4FF00F01CF901F076F897
:1006400001F08CF800F0F2FF0C4B1B6800221A60DE
:1006500000F0DCF801209FED060B00F037F90848A8
:1006600000F01EFB002318460837BD4680BD00BFC2
:100670009A9999999999A93F8800002008650008DE
:100680003800002080B483B000AF786039607B68A8
:100690003A689A6100BF0C37BD465DF8047B70472D
:1006A00080B483B000AF786039603B681A047B681F
:1006B0009A6100BF0C37BD465DF8047B70470000AF
:1006C00080B400AF084B5A790132D2B25A71064B4E
:1006D0005B79012B02D9044B00225A7100BFBD4641
:1006E0005DF8047B704700BFAC00002080B586B089
:1006F00000AFFFF7E5FF1F4B9B69042B05DC1D4B8B
:100700009B69002B01DB012300E000233B61194BB7
:100710009B69082B03DD174B00229A6104E0154BFF
:100720009B690133134A9361134BFB600023BB6049
:100730003B69002B02D020237B6101E000237B6119
:100740007A69BB6802FA03F37B612022BB6802FA74
:1007500003F37B607969F868FFF794FF7B69DA43FC
:100760007B6813401946F868FFF79AFF00BF1837F7
:10077000BD4680BD8C0000200000024080B586B0E0
:1007800000AF204BDB69042B05DC1E4BDB69002B23
:1007900001DB012300E000233B611A4BDB69082BDE
:1007A00003DD184B0022DA6104E0164BDB690133EC
:1007B000144AD361144BFB600023BB603B69002BE0
:1007C00003D04FF400737B6101E000237B617A6901
:1007D000BB6802FA03F37B614FF40072BB6802FA54
:1007E00003F37B607969F868FFF74CFF7B69DA43B4
:1007F0007B6813401946F868FFF752FF00BF1837AF
:10080000BD4680BD8C0000200000024080B400AFD7
:100810000B4B00221A730A4B01221A61084B01226A
:100820001A75074B00221A70054B01225A60044BBF
:1008300001221A7200BFBD465DF8047B704700BFFD
:100840008C00002080B400AF094B1B7B002B02D131
:10085000074B01221A73064B1B78002B02D1044B65
:1008600001221A7000BFBD465DF8047B704700BFCF
:100870008C00002080B400AF00BFBD465DF8047B53
:10088000704700BF80B582B000AF7860034800F0C9
:1008900025FA00BF0837BD4680BD00BF3C000020E0
:1008A00080B582B000AF78607868FFF7F5FD00BFD3
:1008B0000837BD4680BD80B582B000AF78607868EB
:1008C000FFF7B8FD00BF0837BD4680BD80B58EB0CC
:1008D00000AF87ED020B786000218C4800F0C9F969
:1008E00038633B6B002B0BD04FF0500383F3118820
:1008F000BFF36F8FBFF34F8FFB6200BF00BFFDE7F9
:100900000021834800F0B5F938633B6B002B0BD016
:100910004FF0500383F31188BFF36F8FBFF34F8FF6
:10092000BB6200BF00BFFDE77A4B28221A61794BFA
:1009300000229A61774B80229A82764B764A07CAC8
:1009400003C31A7000227549724800F0FBF838633F
:100950003B6B002B0BD04FF0500383F31188BFF398
:100960006F8FBFF34F8F7B6200BF00BFFDE7002397
:100970007B6376E06A497B6B7A6B41F823207B6B63
:100980009B00684A13440021184600F072F938634E
:100990003B6B002B0BD04FF0500383F31188BFF358
:1009A0006F8FBFF34F8F3B6200BF00BFFDE77B6BD4
:1009B000C3F1270318465C497A6B1346DB009B1A88
:1009C0009B000B441033186057497A6B1346DB00C9
:1009D0009B1A9B000B4410331B68002B0BD14FF06C
:1009E000500383F31188BFF36F8FBFF34F8FFB6109
:1009F00000BF00BFFDE74C497A6B1346DB009B1A32
:100A00009B000B44183300221A6047497A6B134647
:100A1000DB009B1A9B000B44143380221A807A6BF4
:100A20001346DB009B1A9B003F4A98187B6B9B0088
:100A30003B4A13441A463D4900F084F838633B6B47
:100A4000002B0BD04FF0500383F31188BFF36F8F4F
:100A5000BFF34F8FBB6100BF00BFFDE77B6B01336E
:100A60007B637B6B002B85DD314B00221A60D7E95D
:100A70000201FFF795FB07EE100ADFED2E7A67EE15
:100A8000277AFCEEE77A17EE902A294B5A60284B1A
:100A900001229A60264B0022DA60274B274A92E80F
:100AA000030018600433198002330A0C1A702449B9
:100AB0001F4800F098F838633B6B002B0BD04FF0C9
:100AC000500383F31188BFF36F8FBFF34F8F7B61A8
:100AD00000BF00BFFDE74FF47A71154800F0A5F89C
:100AE00038633B6B002B0BD04FF0500383F311881E
:100AF000BFF36F8FBFF34F8F3B6100BF00BFFDE7B8
:100B000003F0F8FB00BF3837BD4680BD3C00002035
:100B10003800002048000020DC640008A10800081C
:100B200044000020400000206C000020B7080008AE
:100B3000B400002000007A44C4000020E8640008EB
:100B40008508000880B588B002AFF860B9607A60A7
:100B5000FB68002B01D1012324E0F968FB68988A27
:100B6000FB681B69FA681832019200937B680246A1
:100B7000B86803F005FA7861FB689B69002B0BD11C
:100B80004FF0500383F31188BFF36F8FBFF34F8F84
:100B90003B6100BF00BFFDE77B69012B14BF012350
:100BA0000023DBB218461837BD4680BD80B582B041
:100BB00000AF7860002003F029FB00BF0837BD4676
:100BC00080BD84B080B500AF07F1080C8CE80F0041
:100BD0003B6A184603F01AFB00231846BD46BDE8E1
:100BE000804004B0704790B585B002AF786039603E
:100BF0007B6803F110007B6859687B689A687B68A2
:100C000003F10C043B680093234604F0EDF902461F
:100C10007B681A607B681B68002B01D0002300E012
:100C2000012318460C37BD4690BD90B585B002AF84
:100C3000786039607B68002B16D07B681B68002BBE
:100C400012D07B681C6803F069FC02463B68009385
:100C500000230121204604F025FA0346012B14BF8E
:100C600001230023DBB200E0012318460C37BD4608
:100C700090BD80B582B000AF786039603B6819469E
:100C80000A2002F082FB02467B681A607B68002B18
:100C900001D0002300E0012318460837BD4680BD7F
:100CA00080B582B000AF78607B68002B03D07B6892
:100CB0001B68002B01D101230CE07B681B684FF0FF
:100CC000FF31184602F018FE0346012B14BF012322
:100CD0000023DBB218460837BD4680BD80B582B020
:100CE00000AF78607B68002B03D07B681B68002B0B
:100CF00001D101230CE07B68186800230022002149
:100D000002F078FB0346012B14BF01230023DBB262
:100D100018460837BD4680BD80B582B000AF786008
:100D20007B68002B06D07B681B68184602F0F4FE37
:100D3000002300E0012318460837BD4680BD0000AF
:100D400080B400AF044BDB681B0A03F007031846AE
:100D5000BD465DF8047B704700ED00E080B483B0D1
:100D600000AF0346FB7197F90730002B0BDBFB79D3
:100D700003F01F02074997F907305B09012000FAC9
:100D800002F241F8232000BF0C37BD465DF8047B1A
:100D9000704700BF00E100E080B483B000AF0346BD
:100DA0003960FB7197F90730002B0ADB3B68DAB238
:100DB0000C4997F907301201D2B20B4483F8002393
:100DC0000AE03B68DAB20849FB7903F00F03043B01
:100DD0001201D2B20B441A7600BF0C37BD465DF843
:100DE000047B704700E100E000ED00E080B489B0D2
:100DF00000AFF860B9607A60FB6803F00703FB613D
:100E0000FB69C3F10703042B28BF0423BB61FB6903
:100E10000433062B02D9FB69033B00E000237B610E
:100E20004FF0FF32BB6902FA03F3DA43BB681A40A2
:100E30007B699A404FF0FF317B6901FA03F3D94394
:100E40007B680B40134318462437BD465DF8047B8E
:100E50007047000080B485B000AFF860B9607A6078
:100E60000D4ABB6813441B781A46FB6813441B6881
:100E700023F0C0020849BB680B441B781946FB6885
:100E80000B4419467B6813430B6000BF1437BD4603
:100E90005DF8047B704700BF0C65000880B485B026
:100EA00000AFF860B9607A600D4ABB6813441B78E4
:100EB0001A46FB6813441B6823F490720849BB6808
:100EC0000B441B781946FB680B4419467B68134397
:100ED0000B6000BF1437BD465DF8047B704700BF50
:100EE0000C65000880B485B000AFF860B9607A6026
:100EF0000D4ABB6813441B781A46FB6813441B68F1
:100F000023F400720849BB680B441B781946FB6840
:100F10000B4419467B6813430B6000BF1437BD4672
:100F20005DF8047B704700BF0C65000880B485B095
:100F300000AFF860B9607A600D4ABB6813441B7853
:100F40001A46FB6813441B6823F480620849BB6897
:100F50000B441B781946FB680B4419467B68134306
:100F60000B6000BF1437BD465DF8047B704700BFBF
:100F70000C65000880B485B000AFF860B9607A6095
:100F80000D4ABB6813441B781A46FB6813441B6860
:100F900023F4C0520849BB680B441B781946FB6810
:100FA0000B4419467B6813430B6000BF1437BD46E2
:100FB0005DF8047B704700BF0C65000880B485B005
:100FC00000AFF860B9607A600D4ABB6813441B78C3
:100FD0001A46FB6813441B6823F4C0420849BB68E7
:100FE0000B441B781946FB680B4419467B68134376
:100FF0000B6000BF1437BD465DF8047B704700BF2F
:101000000C65000880B485B000AFF860B9607A6004
:101010000D4ABB6813441B781A46FB6813441B68CF
:1010200023F440320849BB680B441B781946FB681F
:101030000B4419467B6813430B6000BF1437BD4651
:101040005DF8047B704700BF0C65000880B485B074
:1010500000AFF860B9607A600D4ABB6813441B7832
:101060001A46FB6813441B6823F060620849BB689A
:101070000B441B781946FB680B4419467B681343E5
:101080000B6000BF1437BD465DF8047B704700BF9E
:101090000C65000880B483B000AF786039600C4AFA
:1010A0003B6813441B781A467B6813445B69084904
:1010B0003A680A44127811467A680A4423F0040315
:1010C000536100BF0C37BD465DF8047B704700BF1D
:1010D0000C65000880B400AF054B1B68044A43F060
:1010E0000103136000BFBD465DF8047B704700BF7D
:1010F0000038024080B400AF064B1B6803F00203C7
:10110000022B0CBF01230023DBB21846BD465DF85D
:10111000047B70470038024080B483B000AF786031
:10112000074B1B6823F0F8027B68DB00044913437C
:101130000B6000BF0C37BD465DF8047B704700BFF5
:101140000038024080B483B000AF7860064B9B68E3
:1011500023F0030204497B6813438B6000BF0C3704
:10116000BD465DF8047B70470038024080B400AF94
:10117000044B9B6803F00C031846BD465DF8047BE6
:10118000704700BF0038024080B483B000AF786081
:10119000064B9B6823F0F00204497B6813438B6085
:1011A00000BF0C37BD465DF8047B70470038024035
:1011B00080B483B000AF7860064B9B6823F4E052A4
:1011C00004497B6813438B6000BF0C37BD465DF854
:1011D000047B70470038024080B483B000AF786071
:1011E000064B9B6823F4604204497B6813438B6081
:1011F00000BF0C37BD465DF8047B704700380240E5
:1012000080B483B000AF7860074BD3F88C3023F004
:10121000807205497B681343C1F88C3000BF0C37DE
:10122000BD465DF8047B70470038024080B400AFD3
:10123000054B1B68044A43F08073136000BFBD4632
:101240005DF8047B704700BF0038024080B400AFF7
:10125000074B1B6803F00073B3F1007F0CBF012341
:101260000023DBB21846BD465DF8047B704700BF23
:101270000038024080B485B000AFF860B9607A6091
:101280003B600D4B5A680D4B1340F968BA68114327
:101290007A6892010A43084913434B60064B5B6826
:1012A00023F4403204493B6813434B6000BF1437BA
:1012B000BD465DF8047B7047003802400080BFFFE8
:1012C00080B485B000AF7860084B1A6B07497B6823
:1012D00013430B63054B1A6B7B681340FB60FB6881
:1012E00000BF1437BD465DF8047B704700380240EC
:1012F00080B485B000AF7860084B1A6C07497B68F2
:1013000013430B64054B1A6C7B681340FB60FB684E
:1013100000BF1437BD465DF8047B704700380240BB
:1013200080B487B000AF78603960174A3B68DBB2A1
:10133000023352F823203B681B0CDB4302EA030113
:101340003B681B0C3B613B6993FAA3F3FB60FB68B2
:101350007B617B69002B01D1202303E07B69B3FA19
:1013600083F3DBB21A467B6803FA02F206483B6855
:10137000DBB20A43023340F8232000BF1C37BD46CE
:101380005DF8047B704700BF0038014080B483B033
:1013900000AF7860064B1B6823F0070204497B68A6
:1013A00013430B6000BF0C37BD465DF8047B7047EC
:1013B000003C024080B400AF044B1B6803F00703FD
:1013C0001846BD465DF8047B704700BF003C0240F4
:1013D00080B483B000AF7860064B1B6823F44042B2
:1013E00004497B6813430B6000BF0C37BD465DF8B2
:1013F000047B70470070004080B400AF074B5B680F
:1014000003F48043B3F5804F0CBF01230023DBB20C
:101410001846BD465DF8047B704700BF0070004071
:1014200080B483B000AF78607B68DB6843F400521F
:101430007B68DA6000BF0C37BD465DF8047B7047FF
:1014400080B483B000AF78607B681B6923F490425E
:101450007B681A617B685B6923F02A027B685A61AA
:1014600000BF0C37BD465DF8047B704780B48BB07D
:1014700000AFF860B9607A60FB681A68BB687B618E
:101480007B6993FAA3F33B613B69BB61BB69002BAA
:1014900001D1202303E0BB69B3FA83F3DBB25B0025
:1014A000032101FA03F3DB431A40BB683B623B6A4A
:1014B00093FAA3F3FB61FB697B627B6A002B01D18A
:1014C000202303E07B6AB3FA83F3DBB25B00796825
:1014D00001FA03F31A43FB681A6000BF2C37BD46BC
:1014E0005DF8047B704780B48BB000AFF860B960E2
:1014F0007A60FB68DA68BB687B617B6993FAA3F367
:101500003B613B69BB61BB69002B01D1202303E038
:10151000BB69B3FA83F3DBB25B00032101FA03F387
:10152000DB431A40BB683B623B6A93FAA3F3FB615F
:10153000FB697B627B6A002B01D1202303E07B6A7D
:10154000B3FA83F3DBB25B00796801FA03F31A4361
:10155000FB68DA6000BF2C37BD465DF8047B70473E
:1015600080B483B000AF786039603B681A047B6850
:101570009A6100BF0C37BD465DF8047B70470000E0
:1015800080B500AF0220FFF701FF00BFFFF712FF99
:101590000346022BFAD14FF44040FFF719FF102009
:1015A000FFF7BAFDFFF796FD00BFFFF7A3FD034667
:1015B000012BFAD14FF480334FF4A8721021002090
:1015C000FFF758FEFFF732FE00BFFFF73FFE03466E
:1015D000012BFAD100BFFFF70FFF0346002BFAD013
:1015E0000020FFF7D1FD4FF48050FFF7E1FD002010
:1015F000FFF7F2FD0220FFF7A5FD00BFFFF7B6FDE4
:101600000346082BFAD1084800F0F4FC0F2000F044
:101610006FF90346002B01D000F00CF90020FFF712
:10162000EFFD00BF80BD00BF00BD010580B58EB0DD
:1016300000AF07F11C0300221A605A609A60DA605A
:101640001A615A619A613B1D00221A605A609A60C1
:10165000DA601A615A614FF40030FFF749FE012049
:10166000FFF72EFE0C237B600223BB600323FB608D
:1016700000233B6100237B610723BB613B1D1946AF
:10168000274800F0FCFA4FF0006205212548FFF7DB
:10169000DDFC002205212348FFF7DCFB00220521A9
:1016A0002048FFF7AFFC002205211E48FFF7F6FB9C
:1016B000002205211B48FFF715FC4FF4806205212D
:1016C0001848FFF733FC002205211648FFF752FCAB
:1016D000002205211348FFF771FC05211148FFF78F
:1016E000D9FC4FF4E133FB6100233B6200237B62B2
:1016F0000023BB620C23FB6200233B6300237B635C
:1017000007F11C031946084801F0E2FB0648FFF701
:1017100097FE0548FFF784FE00BF3837BD4680BD01
:1017200000000240006002400044004080B500AF6D
:101730004FF40010FFF7C4FDFFF702FB0346002241
:1017400005211846FFF752FB034619461020FFF704
:1017500023FB1020FFF702FB00BF80BD80B588B0DF
:1017600000AF07F1180300221A605A603B460022BE
:101770001A605A609A60DA601A615A610420FFF7B1
:101780009FFD8020FFF79CFD0120FFF799FD0220BF
:10179000FFF796FD4FF408711A48FFF7E1FE1A496A
:1017A0000220FFF7BDFD4FF40053BB6101233B77DF
:1017B00000237B770223BB7707F11803184600F05C
:1017C000C1FC00224FF400511048FFF78CFE0022AC
:1017D0004FF400510D48FFF749FE4FF408733B608A
:1017E00001237B600023BB600023FB6000233B617F
:1017F0003B461946034800F042FA00BF2037BD4679
:1018000080BD00BF000002400300F000000802405D
:1018100080B582B000AF78607B681B68044A934251
:1018200001D100F065FE00BF0837BD4680BD00BF96
:10183000000C004080B400AF72B600BF00BFFDE7EF
:1018400080B400AF00BFFDE780B400AF00BFFDE78C
:1018500080B400AF00BFFDE780B400AF00BFFDE77C
:1018600080B400AF00BFFDE780B400AF00BFBD464D
:101870005DF8047B704780B400AF00BFBD465DF8E3
:10188000047B704780B500AF024800F001FF00BF45
:1018900080BD00BFD400002080B582B000AF00231F
:1018A0007B60124B5B6C114A43F4804353640F4BD3
:1018B0005B6C03F480437B607B6800233B600B4BD5
:1018C0001B6C0A4A43F080531364084B1B6C03F0F3
:1018D00080533B603B6800220F216FF0010000F055
:1018E000BBFD00BF0837BD4680BD00BF00380240C9
:1018F00080B58EB000AF78600023FB620023BB622E
:101900000023FB60334B1B6C324A43F00803136423
:10191000304B1B6C03F00803FB60FB6807F11002FF
:1019200007F114031146184600F0ACFC3B6AFB6259
:10193000FB6A002B03D100F091FC786304E000F017
:101940008DFC03465B007B637B6B234AA2FB032376
:101950009B0C013BBB62214B214A1A601F4B40F29A
:10196000E732DA601D4ABB6A53601C4B00221A61E1
:101970001A4B00229A60194B00229A61174800F016
:10198000CBFD034687F8333097F83330002B1BD15B
:10199000124800F01BFE034687F8333097F83330C7
:1019A000002B11D1322000F073FD7B680F2B08D87B
:1019B00000227968322000F04FFD0A4A7B681360EC
:1019C00002E0012387F8333097F833301846383770
:1019D000BD4680BD0038024083DE1B43D40000209A
:1019E000000C00400400002080B48BB000AFF86011
:1019F000B9607A60FB681A68BB687B617B6993FA9F
:101A0000A3F33B613B69BB61BB69002B01D1202380
:101A100003E0BB69B3FA83F3DBB25B00032101FA95
:101A200003F3DB431A40BB683B623B6A93FAA3F3C0
:101A3000FB61FB697B627B6A002B01D1202303E001
:101A40007B6AB3FA83F3DBB25B00796801FA03F3D4
:101A50001A43FB681A6000BF2C37BD465DF8047B53
:101A6000704780B485B000AFF860B9607A60FB68F9
:101A70005A68BB68DB431A40BB68796801FB03F313
:101A80001A43FB685A6000BF1437BD465DF8047BFB
:101A9000704780B48BB000AFF860B9607A60FB68C3
:101AA0009A68BB687B617B6993FAA3F33B613B69EE
:101AB000BB61BB69002B01D1202303E0BB69B3FAF2
:101AC00083F3DBB25B00032101FA03F3DB431A402B
:101AD000BB683B623B6A93FAA3F3FB61FB697B62E1
:101AE0007B6A002B01D1202303E07B6AB3FA83F3E6
:101AF000DBB25B00796801FA03F31A43FB689A6072
:101B000000BF2C37BD465DF8047B704780B48BB0B6
:101B100000AFF860B9607A60FB68DA68BB687B6127
:101B20007B6993FAA3F33B613B69BB61BB69002B03
:101B300001D1202303E0BB69B3FA83F3DBB25B007E
:101B4000032101FA03F3DB431A40BB683B623B6AA3
:101B500093FAA3F3FB61FB697B627B6A002B01D1E3
:101B6000202303E07B6AB3FA83F3DBB25B0079687E
:101B700001FA03F31A43FB68DA6000BF2C37BD4655
:101B80005DF8047B704780B48BB000AFF860B9603B
:101B90007A60FB681A6ABB687B617B6993FAA3F37E
:101BA0003B613B69BB61BB69002B01D1202303E092
:101BB000BB69B3FA83F3DBB29B000F2101FA03F395
:101BC000DB431A40BB683B623B6A93FAA3F3FB61B9
:101BD000FB697B627B6A002B01D1202303E07B6AD7
:101BE000B3FA83F3DBB29B00796801FA03F31A437B
:101BF000FB681A6200BF2C37BD465DF8047B704756
:101C000080B48BB000AFF860B9607A60FB685A6A44
:101C1000BB681B0A7B617B6993FAA3F33B613B6959
:101C2000BB61BB69002B01D1202303E0BB69B3FA80
:101C300083F3DBB29B000F2101FA03F3DB431A406D
:101C4000BB681B0A3B623B6A93FAA3F3FB61FB6927
:101C50007B627B6A002B01D1202303E07B6AB3FA0D
:101C600083F3DBB29B00796801FA03F31A43FB6844
:101C70005A6200BF2C37BD465DF8047B704780B5C3
:101C80008AB000AF7860396000237B6200233B623A
:101C90003B681B68BB61BB6993FAA3F37B617B69FB
:101CA000FB61FB69002B01D1202303E0FB69B3FA40
:101CB00083F3DBB27B6257E03B681A6801217B6AE1
:101CC00001FA03F313403B623B6A002B49D03B68A7
:101CD0005B68012B03D03B685B68022B0DD13B682E
:101CE0009B681A46396A7868FFF7D3FE3B68DB6861
:101CF0001A46396A7868FFF7B4FE3B681B691A46D2
:101D0000396A7868FFF702FF3B685B68022B21D1D4
:101D10003B6AFB60FB6893FAA3F3BB60BB683B6163
:101D20003B69002B01D1202303E03B69B3FA83F325
:101D3000DBB2072B07D83B685B691A46396A7868BB
:101D4000FFF721FF06E03B685B691A46396A78684D
:101D5000FFF756FF3B685B681A46396A7868FFF7F9
:101D600043FE7B6A01337B623B681A687B6A22FA16
:101D700003F3002BA0D1002318462837BD4680BDB1
:101D800080B400AF044B9B6803F00C031846BD46BB
:101D90005DF8047B704700BF0038024080B400AF9C
:101DA000044B9B6803F0F0031846BD465DF8047BC6
:101DB000704700BF0038024080B400AF044B9B68FE
:101DC00003F4E0531846BD465DF8047B704700BF3E
:101DD0000038024080B400AF044B9B6803F46043BA
:101DE0001846BD465DF8047B704700BF00380240CE
:101DF00080B400AF044B5B6803F480031846BD4613
:101E00005DF8047B704700BF0038024080B400AF2B
:101E1000044B5B689B09C3F308031846BD465DF895
:101E2000047B70470038024080B400AF044B5B680D
:101E300003F440331846BD465DF8047B704700BF8D
:101E40000038024080B400AF044B5B6803F03F03EE
:101E50001846BD465DF8047B704700BF003802405D
:101E600080B582B000AF786000F020F802467B6851
:101E70001A607B681B68184600F040F802467B68D1
:101E80005A607B685B68184600F04EF802467B6833
:101E90009A607B685B68184600F05AF802467B68D7
:101EA000DA6000BF0837BD4680BD000080B582B053
:101EB00000AF00237B60FFF763FF0346082B0CD0C5
:101EC000082B0FD8002B02D0042B03D00AE0094BBB
:101ED0007B600AE0084B7B6007E0082000F04CF8CC
:101EE000786002E0034B7B6000BF7B6818460837D0
:101EF000BD4680BD0024F40000127A0080B582B097
:101F000000AF7860FFF74AFF03461B0903F00F0399
:101F1000044AD35C1A467B68D34018460837BD464E
:101F200080BD00BF1465000880B582B000AF786046
:101F3000FFF742FF03469B0A044AD35C1A467B68BC
:101F4000D34018460837BD4680BD00BF2465000851
:101F500080B582B000AF7860FFF73CFF03465B0BB3
:101F6000044AD35C1A467B68D34018460837BD46FE
:101F700080BD00BF2465000890B587B000AF7860D1
:101F800000237B610023FB6000233B61FFF730FFF0
:101F9000F860FB68002B04D0FB68B3F5800F03D01A
:101FA00005E0124B7B6105E0114B7B6102E00F4BBA
:101FB0007B6100BF7B68082B13D1FFF743FF02460C
:101FC0007B69B3FBF2F4FFF721FF034603FB04F444
:101FD000FFF72AFF03461B0C01335B00B4FBF3F34E
:101FE0003B613B6918461C37BD4690BD0024F40098
:101FF00000127A0080B483B000AF7860044A7B6836
:10200000136000BF0C37BD465DF8047B704700BF0E
:102010001000002080B483B000AF7860054B1A68D0
:1020200004497B6813430B6000BF0C37BD465DF865
:10203000047B7047003C014080B483B000AF7860FF
:10204000064B1A687B68DB43044913400B6000BFF2
:102050000C37BD465DF8047B704700BF003C014073
:1020600080B483B000AF7860054B5A6804497B6840
:1020700013434B6000BF0C37BD465DF8047B7047CF
:10208000003C014080B483B000AF7860064B5A68D2
:102090007B68DB43044913404B6000BF0C37BD46EF
:1020A0005DF8047B704700BF003C014080B483B002
:1020B00000AF7860054B9A6804497B6813438B60D6
:1020C00000BF0C37BD465DF8047B7047003C014003
:1020D00080B483B000AF7860064B9A687B68DB43BE
:1020E000044913408B6000BF0C37BD465DF8047B8C
:1020F000704700BF003C014080B483B000AF7860FF
:10210000054BDA6804497B681343CB6000BF0C378A
:10211000BD465DF8047B7047003C014080B483B04D
:1021200000AF7860064BDA687B68DB4304491340F4
:10213000CB6000BF0C37BD465DF8047B704700BF25
:10214000003C014080B584B000AF78600023FB7391
:102150007B681B79002B65D07B681B68002B6BD0DC
:102160007B685B79022B1CD0022B25DC002B02D074
:10217000012B0BD020E07B681B681846FFF782FF1D
:102180007B681B681846FFF745FF18E07B681B68F3
:102190001846FFF751FF7B681B681846FFF760FF82
:1021A0000DE07B681B681846FFF734FF7B681B68EF
:1021B0001846FFF755FF02E00123FB7300BF7B6861
:1021C0009B79002B38D07B689B79032B1CD0032B89
:1021D00025DC012B02D0022B0BD020E07B681B6892
:1021E0001846FFF79BFF7B681B681846FFF75EFFEA
:1021F00022E07B681B681846FFF76AFF7B681B6854
:102200001846FFF779FF17E07B681B681846FFF751
:102210004DFF7B681B681846FFF76EFF0CE001233B
:10222000FB7309E07B681B681846FFF705FF7B68B6
:102230001B681846FFF726FFFB7B18461037BD4684
:1022400080BD000080B400AF034B1B681846BD463C
:102250005DF8047B704700BF1000002080B500AF20
:10226000FFF7F0FF0246054B9B689B0A03F007034C
:102270000349CB5C22FA03F3184680BD00380240C4
:102280002465000880B483B000AF786039607B6853
:102290000F221A60124B9B6803F003027B685A609E
:1022A0000F4B9B6803F0F0027B689A600C4B9B68B5
:1022B00003F4E0527B68DA60094B9B68DB0803F4A7
:1022C000E0527B681A61074B1B6803F007023B680A
:1022D0001A6000BF0C37BD465DF8047B704700BF35
:1022E00000380240003C024080B485B000AF786006
:1022F0007B6803F00703FB600C4BDB68BB60BA68CC
:102300004FF6FF031340BB60FB681A02BB68134320
:1023100043F0BF6343F40033BB60044ABB68D3603F
:1023200000BF1437BD465DF8047B704700ED00E048
:1023300080B400AF044BDB681B0A03F007031846A8
:10234000BD465DF8047B704700ED00E080B483B0CB
:1023500000AF0346FB7197F90730002B0BDBFB79CD
:1023600003F01F02074997F907305B09012000FAC3
:1023700002F241F8232000BF0C37BD465DF8047B14
:10238000704700BF00E100E080B483B000AF0346B7
:102390003960FB7197F90730002B0ADB3B68DAB232
:1023A0000C4997F907301201D2B20B4483F800238D
:1023B0000AE03B68DAB20849FB7903F00F03043BFB
:1023C0001201D2B20B441A7600BF0C37BD465DF83D
:1023D000047B704700E100E000ED00E080B489B0CC
:1023E00000AFF860B9607A60FB6803F00703FB6137
:1023F000FB69C3F10703042B28BF0423BB61FB69FE
:102400000433062B02D9FB69033B00E000237B6108
:102410004FF0FF32BB6902FA03F3DA43BB681A409C
:102420007B699A404FF0FF317B6901FA03F3D9438E
:102430007B680B40134318462437BD465DF8047B88
:10244000704780B582B000AF78607868FFF74CFFC6
:1024500000BF0837BD4680BD80B586B000AF0346DB
:10246000B9607A60FB7300237B61FFF761FF7861DD
:102470007A68B9687869FFF7B1FF024697F90F30BB
:1024800011461846FFF780FF00BF1837BD4680BDD4
:1024900080B582B000AF0346FB7197F9073018464C
:1024A000FFF754FF00BF0837BD4680BD80B500AFC1
:1024B0000E4B1B680D4A43F4007313600B4B1B68F3
:1024C0000A4A43F480631360084B1B68074A43F4CD
:1024D000807313600320FFF7B4FF0F20FFF708FAA3
:1024E000FFF7DAF90023184680BD00BF003C024028
:1024F00080B400AF064B1B781A46064B1B6813448A
:10250000044A136000BFBD465DF8047B704700BFFE
:10251000080000201C01002080B582B000AF786068
:102520007B68002B01D1012341E07B6893F83D30AB
:10253000DBB2002B06D17B68002283F83C20786850
:1025400000F039F87B68022283F83D207B681A6826
:102550007B6804331946104600F0B2F97B6801220B
:1025600083F846207B68012283F83E207B680122A5
:1025700083F83F207B68012283F840207B6801229A
:1025800083F841207B68012283F842207B68012286
:1025900083F843207B68012283F844207B68012272
:1025A00083F845207B68012283F83D2000231846EC
:1025B0000837BD4680BD80B483B000AF786000BFEF
:1025C0000C37BD465DF8047B7047000080B485B0D1
:1025D00000AF78607B6893F83D30DBB2012B01D00F
:1025E000012344E07B68022283F83D207B681B685E
:1025F000DA687B681B6842F00102DA607B681B685E
:102600001E4A934218D07B681B68B3F1804F13D0E9
:102610007B681B681A4A93420ED07B681B68194A74
:10262000934209D07B681B68174A934204D07B68A9
:102630001B68164A934211D17B681B689B6803F0A4
:102640000703FB60FB68062B10D07B681B681A68C9
:102650007B681B6842F001021A6007E07B681B6818
:102660001A687B681B6842F001021A600023184652
:102670001437BD465DF8047B704700BF0000014081
:102680000004004000080040000C004000400140F1
:1026900080B584B000AF78607B681B68DB68FB6046
:1026A0007B681B681B69BB60BB6803F00203002BDF
:1026B00020D0FB6803F00203002B1BD07B681B6853
:1026C0006FF002021A617B6801221A777B681B682F
:1026D0009B6903F00303002B03D0786800F0D2F865
:1026E00005E0786800F0C4F8786800F0D5F87B68F9
:1026F00000221A77BB6803F00403002B20D0FB688C
:1027000003F00403002B1BD07B681B686FF00402EE
:102710001A617B6802221A777B681B689B6903F445
:102720004073002B03D0786800F0ACF805E07868BF
:1027300000F09EF8786800F0AFF87B6800221A7706
:10274000BB6803F00803002B20D0FB6803F00803EC
:10275000002B1BD07B681B686FF008021A617B6836
:1027600004221A777B681B68DB6903F00303002BE4
:1027700003D0786800F086F805E0786800F078F813
:10278000786800F089F87B6800221A77BB6803F04C
:102790001003002B20D0FB6803F01003002B1BD08C
:1027A0007B681B686FF010021A617B6808221A7739
:1027B0007B681B68DB6903F44073002B03D07868E7
:1027C00000F060F805E0786800F052F8786800F0F2
:1027D00063F87B6800221A77BB6803F00103002BC3
:1027E0000CD0FB6803F00103002B07D07B681B684B
:1027F0006FF001021A617868FFF70AF8BB6803F00E
:102800008003002B0CD0FB6803F08003002B07D063
:102810007B681B686FF080021A61786800F0E6F848
:10282000BB6803F04003002B0CD0FB6803F04003AF
:10283000002B07D07B681B686FF040021A61786834
:1028400000F034F8BB6803F02003002B0CD0FB68C9
:1028500003F02003002B07D07B681B686FF0200279
:102860001A61786800F0B8F800BF1037BD4680BD27
:1028700080B483B000AF786000BF0C37BD465DF810
:10288000047B704780B483B000AF786000BF0C3722
:10289000BD465DF8047B704780B483B000AF7860BC
:1028A00000BF0C37BD465DF8047B704780B483B031
:1028B00000AF786000BF0C37BD465DF8047B704701
:1028C00080B485B000AF786039607B681B68FB60BE
:1028D0007B683A4A93420FD07B68B3F1804F0BD0AC
:1028E0007B68374A934207D07B68364A934203D0CD
:1028F0007B68354A934208D1FB6823F07003FB6084
:102900003B685B68FA681343FB607B682B4A934221
:102910001BD07B68B3F1804F17D07B68284A934265
:1029200013D07B68274A93420FD07B68264A934294
:102930000BD07B68254A934207D07B68244A934298
:1029400003D07B68234A934208D1FB6823F4407389
:10295000FB603B68DB68FA681343FB60FB6823F0AD
:1029600080023B685B691343FB607B68FA681A600E
:102970003B689A687B68DA623B681A687B689A628F
:102980007B680E4A934203D13B681A697B681A63DD
:102990007B6801225A617B681B6903F00103012BEC
:1029A00005D17B681B6923F001027B681A6100BFB7
:1029B0001437BD465DF8047B704700BF000001403E
:1029C0000004004000080040000C004000400140AE
:1029D000004401400048014080B483B000AF7860FB
:1029E00000BF0C37BD465DF8047B704780B483B0F0
:1029F00000AF786000BF0C37BD465DF8047B7047C0
:102A000080B483B000AF78607B68DB6803F4005368
:102A1000B3F5005F0CBF01230023DBB218460C376F
:102A2000BD465DF8047B704780B483B000AF78602A
:102A300039607B681B6923F440523B681A437B680A
:102A40001A6100BF0C37BD465DF8047B704780B447
:102A500083B000AF786039607B685B6923F44072B3
:102A60003B681A437B685A6100BF0C37BD465DF86E
:102A7000047B70472DE9B04FC0B000AFC7F8FC0031
:102A8000C7F8F810C7F8F420C7F8F030D7F8F430DA
:102A9000B3F5004F40F00C81D7F8F8300022C7F8AA
:102AA000E830C7F8EC20D7E93A4522462B46911882
:102AB00039665B417B66D7E91823214612EB010892
:102AC000294643EB01094FF000024FF000034FEAA3
:102AD000C90343EA58734FEAC80290469946234611
:102AE00018EB0303C7F8E0302B4649EB0303C7F8A4
:102AF000E430D7F8F03000229A4693461AEB0A03E6
:102B0000BB654BEB0B03FB65D7E91623D7E938010F
:102B1000FDF796FB02460B46644BA3FB02235B09C1
:102B20009BB21B019CB2D7F8F8300022C7F8D8300E
:102B3000C7F8DC20D7E9368942464B4691183965FB
:102B40005B417B65D7E9142341465118B964494676
:102B50004B41FB644FF000024FF00003D7E912AB8A
:102B60005946CB00514643EA51735146CA001046BC
:102B70001946034642469B18C7F8D0304B460A46D2
:102B800042EB0303C7F8D430D7F8F0300022C7F87F
:102B9000C830C7F8CC20D7E932120B46DB183B64AB
:102BA000134642EB03037B64D7E91023D7E93401D2
:102BB000FDF746FB02460B4611463C4BA3FB0123A7
:102BC0005B09642202FB03F3CB1ADB0003F1320240
:102BD000364BA3FB02235B099BB25B009BB203F461
:102BE000F8739BB223449CB2D7F8F8300022C7F8A0
:102BF000C030C7F8C420D7E9308942464B46911807
:102C0000B9635B41FB63D7E90E2341465118396331
:102C100049464B417B634FF000024FF00003D7E978
:102C20000CAB5946CB00514643EA51735146CA009A
:102C300010461946034642469B18C7F8B8304B4623
:102C40000A4642EB0303C7F8BC30D7F8F030002245
:102C5000C7F8B030C7F8B420D7E92C120B46DB1800
:102C6000BB62134642EB0303FB62D7E90A23D7E9B1
:102C70002E01FDF7E5FA02460B460C4BA3FB0213AF
:102C80005B09642101FB03F3D31ADB003233074AEB
:102C9000A2FB03235B099BB203F007039BB223440F
:102CA0009BB21A46D7F8FC309A6008E11F85EB51B9
:102CB000D7F8F8300022C7F8A830C7F8AC20D7E919
:102CC0002A8942464B46911839625B417B62D7E9BB
:102CD000082341465418494643EB01054FF00002D2
:102CE0004FF00003EB0043EA5473E20014461D4624
:102CF0004346E318C7F8A0304B4645EB0303C7F83B
:102D0000A430D7F8F0300022C7F89830C7F89C20DC
:102D10004FF000024FF00003D7E9264529468B000B
:102D2000214643EA917321468A00D7E92801FDF73D
:102D300087FA02460B46654BA3FB02235B099BB255
:102D40001B019CB2D7F8F8300022C7F89030C7F8C2
:102D50009420D7E9248942464B469118B9615B41DA
:102D6000FB61D7E9062341465118396149464B4179
:102D70007B614FF000024FF00003D7E904AB5946E6
:102D8000CB00514643EA51735146CA0010461946DA
:102D9000034642469B18C7F888304B460A4642EB2A
:102DA0000303C7F88C30D7F8F0300022C7F8803022
:102DB000C7F884204FF000024FF00003D7E92089C4
:102DC00049468B00414643EA917341468A00D7E960
:102DD0002201FDF735FA02460B4611463B4BA3FB99
:102DE00001235B09642202FB03F3CB1A1B0132337C
:102DF000364AA2FB03235B099BB203F0F0039BB2AC
:102E000023449CB2D7F8F8300022BB67FA67D7E9B1
:102E10001E8942464B469118B9605B41FB60D7E979
:102E2000022341465118396049464B417B604FF0BF
:102E300000024FF00003D7E900AB5946CB005146E2
:102E400043EA51735146CA001046194603464246AA
:102E50009B183B674B460A4642EB03037B67D7F858
:102E6000F0300022BB66FA664FF000024FF000031C
:102E7000D7E91A8949468B00414643EA9173414696
:102E80008A00D7E91C01FDF7DBF902460B460F4B20
:102E9000A3FB02135B09642101FB03F3D31A1B019B
:102EA00032330A4AA2FB03235B099BB203F00F03F0
:102EB0009BB223449BB21A46D7F8FC309A6000BFFD
:102EC00007F58077BD46BDE8B08F00BF1F85EB5189
:102ED00080B588B000AF786039600123FB770023AC
:102EE000BB617868FFF78CFD0346002B49D17B68F6
:102EF000DB6823F4164323F00C033A6851683A6800
:102F0000D26811433A68126911433A6892690A43D8
:102F10001A437B68DA603B689B6819467868FFF75C
:102F200083FD3B685B6919467868FFF790FD07F100
:102F300008031846FEF794FF7B68144A934202D1B7
:102F40007B69BB610CE07B68114A934202D13B690B
:102F5000BB6105E07B680F4A934201D17B69BB618D
:102F6000BB69002B0DD03B681B68002B09D00023E8
:102F7000FB773B689A693B681B68B9697868FFF71B
:102F800079FDFB7F18462037BD4680BD001001400B
:102F9000004400400014014080B483B000AF78606A
:102FA0007B6803F108027B685A607B684FF0FF3250
:102FB0009A607B6803F108027B68DA607B6803F142
:102FC00008027B681A617B6800221A6000BF0C3718
:102FD000BD465DF8047B704780B483B000AF786075
:102FE0007B6800221A6100BF0C37BD465DF8047B88
:102FF000704780B485B000AF786039607B685B68EB
:10300000FB603B68FA685A60FB689A683B689A60A4
:10301000FB689B683A685A60FB683A689A603B684C
:103020007A681A617B681B685A1C7B681A6000BF4B
:103030001437BD465DF8047B704780B485B000AF9F
:10304000786039603B681B68BB60BB68B3F1FF3FC9
:1030500003D17B681B69FB600CE07B680833FB6075
:1030600002E0FB685B68FB60FB685B681B68BA6832
:103070009A42F6D2FB685A683B685A603B685B68C4
:103080003A689A603B68FA689A60FB683A685A60E6
:103090003B687A681A617B681B685A1C7B681A60F7
:1030A00000BF1437BD465DF8047B704780B485B01F
:1030B00000AF78607B681B69FB607B685B687A683F
:1030C00092689A607B689B687A6852685A60FB686D
:1030D0005B687A689A4203D17B689A68FB685A6099
:1030E0007B6800221A61FB681B685A1EFB681A6025
:1030F000FB681B6818461437BD465DF8047B7047B3
:1031000080B584B000AF786039607B68FB60FB6895
:10311000002B0BD14FF0500383F31188BFF36F8F57
:10312000BFF34F8FBB6000BF00BFFDE702F02CFE76
:10313000FB681A68FB68DB6BF968096C01FB03F339
:103140001A44FB689A60FB6800229A63FB681A685D
:10315000FB685A60FB681A68FB68DB6B013BF96827
:10316000096C01FB03F31A44FB68DA60FB68FF2279
:1031700083F84420FB68FF2283F845203B68002B3E
:1031800014D1FB681B69002B1AD0FB68103318465A
:1031900001F03EFB0346002B12D00D4B4FF0805246
:1031A0001A60BFF34F8FBFF36F8F09E0FB681033D6
:1031B0001846FFF7F1FEFB6824331846FFF7ECFED4
:1031C00002F014FE012318461037BD4680BD00BF33
:1031D00004ED00E080B58EB002AFF860B9607A60AF
:1031E0003B60FB68002B0BD14FF0500383F3118839
:1031F000BFF36F8FBFF34F8FBB6200BF00BFFDE710
:103200003B68002B0BD14FF0500383F31188BFF3C1
:103210006F8FBFF34F8F7B6200BF00BFFDE77B68FE
:10322000002B02D0BB68002B01D0012300E000235B
:10323000002B0BD14FF0500383F31188BFF36F8F36
:10324000BFF34F8F3B6200BF00BFFDE77B68002BE1
:1032500002D1BB68002B01D1012300E00023002B29
:103260000BD14FF0500383F31188BFF36F8FBFF37F
:103270004F8FFB6100BF00BFFDE750237B617B697F
:10328000502B0BD04FF0500383F31188BFF36F8F97
:10329000BFF34F8FBB6100BF00BFFDE77B693B6899
:1032A000FB62FB6A002B0DD0FB6A012283F84620EB
:1032B00097F83820FB6A009313467A68B968F86873
:1032C00000F040F8FB6A18463037BD4680BD80B537
:1032D0008AB002AFF860B9601346FB71FB68002B3F
:1032E0000BD14FF0500383F31188BFF36F8FBFF3FF
:1032F0004F8F3B6100BF00BFFDE7FB68BA6802FB70
:1033000003F3FB61FB695033184602F01FFAB86102
:10331000BB69002B11D0BB697B617B6950337B613A
:10332000BB69002283F84620FA79BB6900931346F3
:103330007A69B968F86800F005F8BB691846203763
:10334000BD4680BD80B584B000AFF860B9607A60DA
:10335000FB70BB68002B03D1BB69BA691A6002E03D
:10336000BB697A681A60BB69FA68DA63BB69BA68D4
:103370001A640121B869FFF7C3FEBB69FA7883F8C4
:103380004C2000BF1037BD4680BD80B586B000AF71
:10339000786039607B68002B0BD14FF0500383F3CA
:1033A0001188BFF36F8FBFF34F8F3B6100BF00BF2A
:1033B000FDE73A687B689A420BD94FF0500383F3DC
:1033C0001188BFF36F8FBFF34F8FFB6000BF00BF4B
:1033D000FDE7022200217868FFF779FF78617B69B9
:1033E000002B02D07B693A689A637B6918461837CC
:1033F000BD4680BD80B58EB000AFF860B9607A6020
:103400003B6000237B63FB683B633B6B002B0BD172
:103410004FF0500383F31188BFF36F8FBFF34F8FCB
:10342000BB6200BF00BFFDE7BB68002B03D13B6B55
:103430001B6C002B01D1012300E00023002B0BD1DA
:103440004FF0500383F31188BFF36F8FBFF34F8F9B
:103450007B6200BF00BFFDE73B68022B03D13B6BE3
:10346000DB6B012B01D1012300E00023002B0BD1EA
:103470004FF0500383F31188BFF36F8FBFF34F8F6B
:103480003B6200BF00BFFDE701F082FB0346002B5B
:1034900002D17B68002B01D1012300E00023002B27
:1034A0000BD14FF0500383F31188BFF36F8FBFF33D
:1034B0004F8FFB6100BF00BFFDE702F065FC3B6B77
:1034C0009A6B3B6BDB6B9A4202D33B68022B29D190
:1034D0003A68B968386B00F05BFBF8623B6B5B6A7B
:1034E000002B10D03B6B2433184601F091F90346B2
:1034F000002B13D03F4B4FF080521A60BFF34F8F19
:10350000BFF36F8F0AE0FB6A002B07D0394B4FF0F7
:1035100080521A60BFF34F8FBFF36F8F02F066FCCB
:10352000012363E07B68002B03D102F05FFC0023E2
:103530005CE07B6B002B06D107F11403184601F009
:10354000CBF901237B6302F051FC00F03BFF02F05A
:103550001BFC3B6B93F844305BB2B3F1FF3F03D1EC
:103560003B6B002283F844203B6B93F845305BB201
:10357000B3F1FF3F03D13B6B002283F8452002F0FB
:1035800035FC3A1D07F114031146184601F0BAF94B
:103590000346002B24D1386B00F0F2FB0346002BCE
:1035A00018D03B6B10337A681146184601F0DEF8EC
:1035B000386B00F07DFB00F013FF0346002B7FF417
:1035C0007CAF0C4B4FF080521A60BFF34F8FBFF3AC
:1035D0006F8F72E7386B00F06BFB00F001FF6CE758
:1035E000386B00F065FB00F0FBFE0023184638370F
:1035F000BD4680BD04ED00E080B590B000AFF8603E
:10360000B9607A603B60FB68BB63BB6B002B0BD17E
:103610004FF0500383F31188BFF36F8FBFF34F8FC9
:10362000BB6200BF00BFFDE7BB68002B03D1BB6BD3
:103630001B6C002B01D1012300E00023002B0BD1D8
:103640004FF0500383F31188BFF36F8FBFF34F8F99
:103650007B6200BF00BFFDE73B68022B03D1BB6B61
:10366000DB6B012B01D1012300E00023002B0BD1E8
:103670004FF0500383F31188BFF36F8FBFF34F8F69
:103680003B6200BF00BFFDE702F05EFCEFF311827A
:103690004FF0500383F31188BFF36F8FBFF34F8F49
:1036A000FA61BB61FB697B63BB6B9A6BBB6BDB6BCA
:1036B0009A4202D33B68022B2FD1BB6B93F8453063
:1036C00087F83330BB6B9B6BFB623A68B968B86BA9
:1036D00000F05EFA97F93330B3F1FF3F12D1BB6BC4
:1036E0005B6A002B16D0BB6B2433184601F090F8B0
:1036F0000346002B0ED07B68002B0BD07B68012289
:103700001A6007E097F833300133DBB25AB2BB6B73
:1037100083F845200123FB6301E00023FB637B6BFF
:103720007B617B6983F3118800BFFB6B18464037D0
:10373000BD4680BD80B58CB000AFF860B9607A60DE
:103740000023FB62FB68BB62BB6A002B0BD14FF00E
:10375000500383F31188BFF36F8FBFF34F8F3B622A
:1037600000BF00BFFDE7BB68002B03D1BB6A1B6C29
:10377000002B01D1012300E00023002B0BD14FF0DF
:10378000500383F31188BFF36F8FBFF34F8FFB613B
:1037900000BF00BFFDE701F0FBF90346002B02D19B
:1037A0007B68002B01D1012300E00023002B0BD10B
:1037B0004FF0500383F31188BFF36F8FBFF34F8F28
:1037C000BB6100BF00BFFDE702F0DEFABB6A9B6B86
:1037D0007B627B6A002B1FD0B968B86A00F042FA9E
:1037E0007B6A5A1EBB6A9A63BB6A1B69002B0FD0A7
:1037F000BB6A1033184601F00BF80346002B07D0C4
:103800003C4B4FF080521A60BFF34F8FBFF36F8F66
:1038100002F0ECFA012369E07B68002B03D102F08F
:10382000E5FA002362E0FB6A002B06D107F11003E2
:10383000184601F051F80123FB6202F0D7FA00F0BC
:10384000C1FD02F0A1FABB6A93F844305BB2B3F158
:10385000FF3F03D1BB6A002283F84420BB6A93F880
:1038600045305BB2B3F1FF3F03D1BB6A002283F85E
:10387000452002F0BBFA3A1D07F110031146184625
:1038800001F040F80346002B23D1B86A00F062FA39
:103890000346002B17D0BB6A24337A6811461846BA
:1038A00000F064FFB86A00F003FA00F099FD0346E7
:1038B000002B89D10F4B4FF080521A60BFF34F8F0E
:1038C000BFF36F8F80E7B86A00F0F2F900F088FD6F
:1038D0007AE7B86A00F0ECF900F082FDB86A00F00F
:1038E00039FA0346002B3FF46FAF002318463037F8
:1038F000BD4680BD04ED00E080B58EB000AF7860BD
:10390000396000237B637B68FB6200233B63FB6AB7
:10391000002B0BD14FF0500383F31188BFF36F8F4F
:10392000BFF34F8F3B6200BF00BFFDE7FB6A1B6C1C
:10393000002B0BD04FF0500383F31188BFF36F8F30
:10394000BFF34F8FFB6100BF00BFFDE701F020F91F
:103950000346002B02D13B68002B01D1012300E07C
:103960000023002B0BD14FF0500383F31188BFF3DA
:103970006F8FBFF34F8FBB6100BF00BFFDE702F049
:1039800003FAFB6A9B6BBB62BB6A002B24D0BB6A49
:103990005A1EFB6A9A63FB6A1B68002B04D101F074
:1039A00071FA0246FB6A9A60FB6A1B69002B0FD012
:1039B000FB6A1033184600F02BFF0346002B07D09C
:1039C000544B4FF080521A60BFF34F8FBFF36F8F8D
:1039D00002F00CFA012398E03B68002B12D13B6BFC
:1039E000002B0BD04FF0500383F31188BFF36F8F80
:1039F000BFF34F8F7B6100BF00BFFDE702F0F6F918
:103A0000002382E07B6B002B06D107F10C031846E4
:103A100000F062FF01237B6302F0E8F900F0D2FCC2
:103A200002F0B2F9FB6A93F844305BB2B3F1FF3FA6
:103A300003D1FB6A002283F84420FB6A93F84530E7
:103A40005BB2B3F1FF3F03D1FB6A002283F845204C
:103A500002F0CCF93A4607F10C031146184600F083
:103A600051FF0346002B32D1F86A00F073F9034688
:103A7000002B26D0FB6A1B68002B09D102F084F9C9
:103A8000FB6A9B68184601F0A1F8386302F0AEF9B2
:103A9000FB6A24333A681146184600F067FEF86A5C
:103AA00000F006F900F09CFC0346002B7FF467AFA2
:103AB000184B4FF080521A60BFF34F8FBFF36F8FD8
:103AC0005DE7F86A00F0F4F800F08AFC57E7F86A5E
:103AD00000F0EEF800F084FCF86A00F03BF90346D1
:103AE000002B3FF44CAF3B6B002B0DD002F04CF998
:103AF000F86A00F035F87862FB6A9B68796A1846C4
:103B000001F03CF902F072F9002318463837BD463F
:103B100080BD00BF04ED00E080B584B000AF7860E8
:103B20007B68FB60FB68002B0BD14FF0500383F3E5
:103B30001188BFF36F8FBFF34F8FBB6000BF00BF13
:103B4000FDE7F86800F05EF9FB6893F84630002B5B
:103B500002D1F86801F0C8FE00BF1037BD4680BD35
:103B600080B485B000AF78607B685B6A002B06D0BC
:103B70007B681B6B1B68C3F13803FB6001E000230B
:103B8000FB60FB6818461437BD465DF8047B704740
:103B900080B586B000AFF860B9607A6000237B61C1
:103BA000FB689B6B3B61FB681B6C002B0DD1FB68BA
:103BB0001B68002B4DD1FB689B68184601F06EF81E
:103BC0007861FB6800229A6043E07B68002B19D182
:103BD000FB685868FB681B6C1A46B968FCF74AFB1F
:103BE000FB685A68FB681B6C1A44FB685A60FB68E8
:103BF0005A68FB689B689A422BD3FB681A68FB687B
:103C00005A6026E0FB68D868FB681B6C1A46B968E6
:103C1000FCF730FBFB68DA68FB681B6C5B421A44FC
:103C2000FB68DA60FB68DA68FB681B689A4207D2B7
:103C3000FB689A68FB681B6C5B421A44FB68DA609D
:103C40007B68022B05D13B69002B02D03B69013B0D
:103C50003B613B695A1CFB689A637B6918461837BD
:103C6000BD4680BD80B582B000AF786039607B68AA
:103C70001B6C002B18D07B68DA687B681B6C1A44BD
:103C80007B68DA607B68DA687B689B689A4203D35A
:103C90007B681A687B68DA607B68D9687B681B6C14
:103CA0001A463868FCF7E6FA00BF0837BD4680BD03
:103CB00080B584B000AF786002F066F87B6893F856
:103CC0004530FB7311E07B685B6A002B12D07B6888
:103CD0002433184600F09CFD0346002B01D000F071
:103CE00075FEFB7B013BDBB2FB7397F90F30002BBA
:103CF000E9DC00E000BF7B68FF2283F8452002F08A
:103D000075F802F041F87B6893F84430BB7311E01A
:103D10007B681B69002B12D07B681033184600F0BB
:103D200077FD0346002B01D000F050FEBB7B013B2A
:103D3000DBB2BB7397F90E30002BE9DC00E000BF6B
:103D40007B68FF2283F8442002F050F800BF103750
:103D5000BD4680BD80B584B000AF786002F014F835
:103D60007B689B6B002B02D10123FB6001E00023E9
:103D7000FB6002F03BF8FB6818461037BD4680BD7B
:103D800080B584B000AF786001F0FEFF7B689A6B6D
:103D90007B68DB6B9A4202D10123FB6001E00023C8
:103DA000FB6002F023F8FB6818461037BD4680BD63
:103DB00080B485B000AF786039600023FB6014E008
:103DC0000F4AFB6852F83330002B0BD10C49FB68CB
:103DD0003A6841F833200A4AFB68DB0013447A68EA
:103DE0005A6006E0FB680133FB60FB68072BE7D9EC
:103DF00000BF00BF1437BD465DF8047B704700BFAD
:103E00002001002080B485B000AF78600023FB6003
:103E100016E0104AFB68DB0013445B687A689A423C
:103E20000BD10C4AFB68002142F83310094AFB68A9
:103E3000DB00134400225A6006E0FB680133FB609C
:103E4000FB68072BE5D900BF00BF1437BD465DF8FE
:103E5000047B70472001002080B586B000AFF86079
:103E6000B9607A60FB687B6101F08EFF7B6993F833
:103E700044305BB2B3F1FF3F03D17B69002283F88A
:103E800044207B6993F845305BB2B3F1FF3F03D127
:103E90007B69002283F8452001F0A8FF7B699B6BBA
:103EA000002B06D17B6924337A68B968184600F084
:103EB00083FC7869FFF7FCFE00BF1837BD4680BD64
:103EC00080B58EB004AFF860B9607A603B607B6B00
:103ED000002B0BD14FF0500383F31188BFF36F8F8A
:103EE000BFF34F8F3B6200BF00BFFDE7BB6B002BF2
:103EF0000BD14FF0500383F31188BFF36F8FBFF3E3
:103F00004F8FFB6100BF00BFFDE75C233B613B6956
:103F10005C2B0BD04FF0500383F31188BFF36F8FEE
:103F2000BFF34F8FBB6100BF00BFFDE73B69BB6BB9
:103F3000002B1ED07B6B002B1BD0BB6B7B627B6A84
:103F40007A6B1A637B6A022283F859200023039359
:103F50007B6A029307F1140301933B6B00933B6868
:103F60007A68B968F86800F050F8786A00F0DEF80E
:103F700001E000237B617B6918462837BD4680BD80
:103F800080B58CB004AFF860B9603B601346FB802D
:103F9000FB889B00184601F0D9FB78617B69002BF8
:103FA0000ED05C2001F0D2FBF861FB69002B03D03E
:103FB000FB697A691A6305E0786901F095FC01E014
:103FC0000023FB61FB69002B17D0FB69002283F8FB
:103FD0005920FA8800230393FB690293FB6A01933B
:103FE000BB6A00933B68B968F86800F00EF8F8699E
:103FF00000F09CF80123BB6102E04FF0FF33BB618E
:10400000BB6918462037BD4680BD80B588B000AF7B
:10401000F860B9607A603B603B6B186B7B689B0013
:104020001A46A52102F06CF93B6B1A6B7B6803F111
:104030008043013B9B001344BB61BB6923F0070332
:10404000BB61BB6903F00703002B0BD04FF050039B
:1040500083F31188BFF36F8FBFF34F8F7B6100BF76
:1040600000BFFDE7BB68002B1FD00023FB6112E0FF
:10407000BA68FB69134419783A6BFB69134434330B
:104080000A461A70BA68FB6913441B78002B06D0E5
:10409000FB690133FB61FB690F2BE9D900E000BF2D
:1040A0003B6B002283F8432003E03B6B002283F844
:1040B0003420BB6A372B01D93723BB623B6BBA6A0A
:1040C000DA623B6BBA6ADA643B6B00221A653B6BBF
:1040D00004331846FEF780FF3B6B18331846FEF793
:1040E0007BFF3B6B3A6B1A61BB6AC3F138023B6BD7
:1040F0009A613B6B3A6B5A623B6B00225A653B6B91
:10410000002283F858203A68F968B86901F00CFD7C
:1041100002463B6B1A60FB6A002B02D0FB6A3A6BCB
:104120001A6000BF2037BD4680BD000080B582B058
:1041300000AF786001F028FE2D4B1B6801332C4A3C
:1041400013602C4B1B68002B09D12A4A7B68136033
:10415000274B1B68012B10D100F05CFC0DE0264BB7
:104160001B68002B09D1234B1B68DA6A7B68DB6A6A
:104170009A4202D81F4A7B681360204B1B680133A8
:104180001E4A13601D4B1A687B685A647B68DA6AA2
:104190001B4B1B689A4203D97B68DB6A184A136081
:1041A0007B68DA6A13469B0013449B00154A1A4445
:1041B0007B68043319461046FEF71BFF01F016FE1C
:1041C0000D4B1B68002B0ED00A4B1B68DA6A7B680C
:1041D000DB6A9A4207D20C4B4FF080521A60BFF351
:1041E0004F8FBFF36F8F00BF0837BD4680BD00BF44
:1041F0003406002060010020400600205006002008
:104200003C0600206401002004ED00E080B584B08D
:1042100000AF786001F0B8FD7B68002B02D12D4B18
:104220001B6800E07B68FB60FB6804331846FEF700
:104230003DFFFB689B6A002B04D0FB6818331846CF
:10424000FEF734FF244B1B680133234A1360214BD4
:104250001B68FA689A420BD1FB68043319461F4861
:10426000FEF7C7FE1E4B1B6801331D4A136009E0B1
:104270001C4B1B68013B1B4A1360F86800F038FCBC
:1042800000F066FC01F0B2FD174B1B68002B1CD040
:10429000104B1B68FA689A4217D1144B1B68002B0D
:1042A0000BD04FF0500383F31188BFF36F8FBFF330
:1042B0004F8FBB6000BF00BFFDE70D4B4FF080523A
:1042C0001A60BFF34F8FBFF36F8F00BF1037BD462B
:1042D00080BD00BF600100205006002008060020BD
:1042E0001C06002034060020400600205C0600204A
:1042F00004ED00E080B58AB004AF0023BB6000236A
:104300007B603A46391D07F10803184601F0EAF9C7
:1043100039687B68BA6802920193002300930023F6
:104320000A4622492248FFF7CBFD0346214A136083
:10433000204B1B68002B02D001237B6101E000238E
:104340007B617B69012B02D100F004FE78617B69FF
:10435000012B16D14FF0500383F31188BFF36F8FF9
:10436000BFF34F8F3B6100BF134B4FF0FF321A601A
:10437000124B01221A60124B00221A6001F060FCFD
:104380000FE07B69B3F1FF3F0BD14FF0500383F394
:104390001188BFF36F8FBFF34F8FFB6000BF00BF6B
:1043A000FDE700BF1837BD4680BD00BFF0640008C0
:1043B000E549000858060020540600204006002069
:1043C0003806002080B400AF044B1B680133034A59
:1043D000136000BFBD465DF8047B70475C0600209B
:1043E00080B584B000AF0023FB600023BB60424B6C
:1043F0001B68002B0BD14FF0500383F31188BFF3E0
:104400006F8FBFF34F8F3B6000BF00BFFDE701F030
:10441000BBFC394B1B68013B374A1360364B1B68AA
:10442000002B62D1354B1B68002B5ED02FE0344B44
:10443000DB68DB68FB60FB6818331846FEF736FE66
:10444000FB6804331846FEF731FEFB68DA6A2D4B31
:104450001B689A4203D9FB68DB6A2A4A1360FB682F
:10446000DA6A13469B0013449B00274A1A44FB68F0
:10447000043319461046FEF7BCFDFB68DA6A234B8D
:104480001B68DB6A9A4202D3214B01221A601C4B43
:104490001B68002BCBD1FB68002B01D000F058FB30
:1044A0001C4B1B687B607B68002B10D000F046F82B
:1044B0000346002B02D0164B01221A607B68013B99
:1044C0007B607B68002BF1D1124B00221A60104BED
:1044D0001B68002B09D00123BB600F4B4FF08052AB
:1044E0001A60BFF34F8FBFF36F8F01F07FFCBB6883
:1044F00018461037BD4680BD5C06002034060020FB
:10450000F40500203C06002064010020600100202A
:10451000480600204406002004ED00E080B483B08B
:1045200000AF054B1B687B607B6818460C37BD46A7
:104530005DF8047B704700BF3806002080B586B068
:1045400000AF00237B614F4B1B68002B40F0908035
:104550004D4B1B6801333B614B4A3B6913603B6920
:10456000002B21D1494B1B681B68002B0BD04FF04F
:10457000500383F31188BFF36F8FBFF34F8F3B60FE
:1045800000BF00BFFDE7414B1B68FB60404B1B6851
:104590003E4A13603E4AFB6813603E4B1B68013382
:1045A0003C4A136000F0D4FA3B4B1B683A699A42CC
:1045B00049D3364B1B681B68002B04D1364B4FF098
:1045C000FF321A603FE0314B1B68DB68DB68BB6081
:1045D000BB685B687B603A697B689A4203D22E4A6B
:1045E0007B6813602FE0BB6804331846FEF75EFD5E
:1045F000BB689B6A002B04D0BB6818331846FEF7D3
:1046000055FDBB68DA6A254B1B689A4203D9BB6823
:10461000DB6A224A1360BB68DA6A13469B001344C4
:104620009B001F4A1A44BB68043319461046FEF724
:10463000E0FCBB68DA6A1B4B1B68DB6A9A42B8D3A2
:1046400001237B61B5E7174B1B68DA6A14491346EF
:104650009B0013449B000B441B68012B01D90123D1
:104660007B61114B1B68002B07D001237B6104E0A9
:104670000E4B1B6801330D4A13607B6918461837CF
:10468000BD4680BD5C06002038060020EC050020F9
:10469000F00500204C060020540600203C060020B7
:1046A000640100206001002048060020440600202C
:1046B00080B485B000AF284B1B68002B03D0274B7C
:1046C00001221A6042E0254B00221A60244B1B682D
:1046D000FB6011E0FB68002B0BD14FF0500383F31C
:1046E0001188BFF36F8FBFF34F8F7B6000BF00BF98
:1046F000FDE7FB68013BFB601A49FA6813469B0023
:1047000013449B000B441B68002BE3D0FA6813464C
:104710009B0013449B00134A1344BB60BB685B6857
:104720005A68BB685A60BB685A68BB6808339A42CB
:1047300004D1BB685B685A68BB685A60BB685B6839
:10474000DB68094A1360064AFB68136000BF143730
:10475000BD465DF8047B70475C06002048060020DB
:104760003C060020640100206001002080B584B078
:1047700000AF786039607B68002B0BD14FF050039D
:1047800083F31188BFF36F8FBFF34F8FFB6000BFC0
:1047900000BFFDE7074B1B68183319467868FEF722
:1047A0004CFC0121386800F081FB00BF1037BD468A
:1047B00080BD00BF6001002080B586B000AFF8600A
:1047C000B9607A60FB68002B0BD14FF0500383F384
:1047D0001188BFF36F8FBFF34F8F7B6100BF00BFA6
:1047E000FDE70A4B1B6818331946F868FEF701FC11
:1047F0007B68002B02D04FF0FF33BB607968B8684C
:1048000000F054FB00BF1837BD4680BD600100209A
:1048100080B586B000AF78607B68DB68DB683B61A1
:104820003B69002B0BD14FF0500383F31188BFF38A
:104830006F8FBFF34F8FFB6000BF00BFFDE73B6989
:1048400018331846FEF732FC1D4B1B68002B1DD198
:104850003B6904331846FEF729FC3B69DA6A194BB9
:104860001B689A4203D93B69DB6A164A13603B69AD
:10487000DA6A13469B0013449B00134A1A443B69AF
:10488000043319461046FEF7B4FB05E03B691833C4
:1048900019460E48FEF7ADFB3B69DA6A0C4B1B6804
:1048A000DB6A9A4205D901237B610A4B01221A6017
:1048B00001E000237B617B6918461837BD4680BD47
:1048C0005C0600203C06002064010020F405002066
:1048D000600100204806002080B483B000AF7860FB
:1048E000064B1A687B681A60054B1A687B685A6029
:1048F00000BF0C37BD465DF8047B70474C060020B6
:104900003806002080B588B000AF786039607B68D9
:10491000002B0BD14FF0500383F31188BFF36F8F3F
:10492000BFF34F8F3B6100BF00BFFDE73B68002B2B
:104930000BD14FF0500383F31188BFF36F8FBFF398
:104940004F8FFB6000BF00BFFDE701F01DFA1D4B5C
:104950001B68BB617B685B68BA69D31A7B613B6883
:104960001B68B3F1FF3F02D10023FB6123E07B68AA
:104970001A68154B1B689A4207D07B685B68BA6956
:104980009A4202D30123FB6115E03B681B687A69F8
:104990009A420BD23B681A687B69D21A3B681A604C
:1049A0007868FFF799FF0023FB6104E03B68002271
:1049B0001A600123FB6101F019FAFB6918462037E0
:1049C000BD4680BD380600204C06002080B400AFF4
:1049D000034B01221A6000BFBD465DF8047B70479F
:1049E0004806002080B582B000AF786000F052F831
:1049F000064B1B68012BF9D9054B4FF080521A600A
:104A0000BFF34F8FBFF36F8FF0E700BF640100204B
:104A100004ED00E080B582B000AF00237B600CE0C5
:104A20007A6813469B0013449B00124A13441846AD
:104A3000FEF7B2FA7B6801337B607B68372BEFD9D6
:104A40000D48FEF7A9FA0D48FEF7A6FA0C48FEF746
:104A5000A3FA0C48FEF7A0FA0B48FEF79DFA0B4BA1
:104A6000054A1A600A4B054A1A6000BF0837BD465E
:104A700080BD00BF64010020C4050020D8050020CF
:104A8000F40500200806002020060020EC05002088
:104A9000F005002080B582B000AF19E001F074F994
:104AA000104BDB68DB687B607B6804331846FEF7DD
:104AB000FDFA0D4B1B68013B0B4A13600B4B1B6847
:104AC000013B0A4A136001F091F9786800F010F890
:104AD000064B1B68002BE1D100BF00BF0837BD4665
:104AE00080BD00BF08060020340600201C06002000
:104AF00080B584B000AF78607B6893F85930002BA4
:104B000008D17B681B6B184600F0EEFE786800F059
:104B1000EBFE19E07B6893F85930012B03D17868DC
:104B200000F0E2FE10E07B6893F85930022B0BD0C6
:104B30004FF0500383F31188BFF36F8FBFF34F8F94
:104B4000FB6000BF00BFFDE700BF1037BD4680BD62
:104B500080B483B000AF0C4B1B681B68002B04D1E2
:104B60000A4B4FF0FF321A6008E0074B1B68DB6806
:104B7000DB687B607B685B68044A136000BF0C37AE
:104B8000BD465DF8047B7047EC050020540600200C
:104B900080B483B000AF0B4B1B68002B02D1012304
:104BA0007B6008E0084B1B68002B02D102237B606E
:104BB00001E000237B607B6818460C37BD465DF83A
:104BC000047B7047400600205C06002080B584B05E
:104BD00000AF78607B68BB600023FB607B68002BC4
:104BE00051D0BB68DA6A2A4B1B68DB6A9A4241D211
:104BF000BB689B69002B06DB254B1B68DB6AC3F196
:104C00003802BB689A61BB685969BB68DA6A1346A7
:104C10009B0013449B001F4A1344994222D1BB6856
:104C200004331846FEF742FA194B1B68DA6ABB6870
:104C3000DA62BB68DA6A184B1B689A4203D9BB6810
:104C4000DB6A154A1360BB68DA6A13469B0013449B
:104C50009B00104A1A44BB68043319461046FEF7FD
:104C6000C8F904E00A4B1B68DA6ABB68DA62012300
:104C7000FB6008E0BB68DA6C054B1B68DB6A9A4294
:104C800001D20123FB60FB6818461037BD4680BD8A
:104C900060010020640100203C06002080B586B041
:104CA00000AF78607B683B6100237B617B68002BF1
:104CB00058D02F4B1B683A699A420BD04FF05003E3
:104CC00083F31188BFF36F8FBFF34F8FFB6000BF7B
:104CD00000BFFDE73B691B6D002B0BD14FF050036C
:104CE00083F31188BFF36F8FBFF34F8FBB6000BF9B
:104CF00000BFFDE73B691B6D5A1E3B691A653B69A6
:104D0000DA6A3B69DB6C9A422CD03B691B6D002B45
:104D100028D13B6904331846FEF7C8F93B69DA6CC1
:104D20003B69DA623B69DB6AC3F138023B699A612D
:104D30003B69DA6A0F4B1B689A4203D93B69DB6A0D
:104D40000C4A13603B69DA6A13469B0013449B00CC
:104D5000094A1A443B69043319461046FEF749F9DB
:104D600001237B617B6918461837BD4680BD00BFB3
:104D7000600100203C0600206401002080B588B05E
:104D800000AF786039607B68BB6101237B617B6821
:104D9000002B6CD0BB691B6D002B0BD14FF0500367
:104DA00083F31188BFF36F8FBFF34F8FFB6000BF9A
:104DB00000BFFDE7BB69DB6C3A689A4202D93B68E9
:104DC000FB6102E0BB69DB6CFB61BB69DB6AFA6912
:104DD0009A424CD0BB691B6D7A699A4247D1264BE7
:104DE0001B68BA699A420BD14FF0500383F31188C4
:104DF000BFF36F8FBFF34F8FBB6000BF00BFFDE7F6
:104E0000BB69DB6A3B61BB69FA69DA62BB699B69B2
:104E1000002B04DBFB69C3F13802BB699A61BB69F3
:104E200059693A6913469B0013449B00134A134483
:104E300099421CD1BB6904331846FEF737F9BB69A8
:104E4000DA6A0F4B1B689A4203D9BB69DB6A0C4ACA
:104E50001360BB69DA6A13469B0013449B00074A40
:104E60001A44BB69043319461046FEF7C2F800BF66
:104E70002037BD4680BD00BF6001002064010020D6
:104E80003C06002080B400AF074B1B68002B04D009
:104E9000054B1B681A6D01321A65034B1B681846D7
:104EA000BD465DF8047B70476001002080B584B08A
:104EB00000AF78603960214B1B68FB60204B1B689A
:104EC00004331846FEF7F2F87B68B3F1FF3F0AD1CE
:104ED0003B68002B07D01A4B1B680433194619484E
:104EE000FEF787F826E0FA687B681344BB60144B32
:104EF0001B68BA685A60BA68FB689A4209D2124BBA
:104F00001A680F4B1B68043319461046FEF795F8D4
:104F100010E00E4B1A680A4B1B6804331946104602
:104F2000FEF78BF80A4B1B68BA689A4202D2084A0D
:104F3000BB68136000BF1037BD4680BD3806002037
:104F40006001002020060020F0050020EC05002074
:104F50005406002080B58AB004AF00237B6100F0C6
:104F600071FB1D4B1B68002B21D00023FB6000232D
:104F7000BB603A1D07F1080107F10C03184600F069
:104F8000CBFB7968BB68FA680292019329230093EE
:104F900000230A4611491248FEF792FF0346114AC0
:104FA0001360104B1B68002B01D001237B617B69D0
:104FB000002B0BD14FF0500383F31188BFF36F8F99
:104FC000BFF34F8F3B6100BF00BFFDE77B69184611
:104FD0001837BD4680BD00BF90060020F864000869
:104FE000DD5100089406002080B588B002AFF8605B
:104FF000B9607A603B602C2000F0A8FB78617B6987
:10500000002B0DD07B69002283F828207B69019357
:105010003B6A00933B687A68B968F86800F005F865
:105020007B6918461837BD4680BD80B586B000AF95
:10503000F860B9607A603B60BB68002B0BD14FF021
:10504000500383F31188BFF36F8FBFF34F8F7B61E2
:1050500000BF00BFFDE77B6A002B1ED000F0F2FA14
:105060007B6AFA681A607B6ABA689A617B6A3A68F6
:10507000DA617B6A3A6A1A627B6A04331846FDF782
:10508000ABFF7B68002B08D07B6A93F8283043F095
:105090000403DAB27B6A83F8282000BF1837BD46C4
:1050A00080BD000080B58AB000AFF860B9607A605A
:1050B0003B6000237B62FB68002B0BD14FF0500359
:1050C00083F31188BFF36F8FBFF34F8F3B6200BF35
:1050D00000BFFDE7194B1B68002B2AD0BB683B6162
:1050E0007B687B61FB68BB61BB68052B18DCFFF745
:1050F0004FFD0346022B09D1104B186807F1100130
:1051000000233A6BFEF776F9786212E00B4B1868D1
:1051100007F1100100230022FEF76CF9786208E025
:10512000064B186807F1100100233A68FEF764FA8D
:1051300078627B6A18462837BD4680BD90060020FD
:1051400080B588B002AF78603960234B1B68DB689C
:10515000DB687B617B6904331846FDF7A7FF7B6939
:1051600093F8283003F00403002B23D07B699A695D
:105170007B68D1187B683A68786900F0D5F80346F7
:10518000002B20D00023009300237A680021786947
:10519000FFF788FF38613B69002B14D14FF05003B3
:1051A00083F31188BFF36F8FBFF34F8FFB6000BF96
:1051B00000BFFDE77B6993F8283023F00103DAB2E2
:1051C0007B6983F828207B691B6A7869984700BF50
:1051D0001837BD4680BD00BF8806002080B584B06A
:1051E00000AF786007F10803184600F059F8F8603E
:1051F000BB681946F86800F005F800F0D7F800BF62
:10520000F0E7000080B584B000AF78603960FFF748
:10521000D9F807F10803184600F066F8F860BB6893
:10522000002B30D13B68002B0AD17A68FB689A4288
:1052300006D8FFF7D5F8F9687868FFF781FF24E012
:105240003B68002B08D0134B1B681B68002B01D157
:10525000012300E000233B600F4B18687A68FB686D
:10526000D31A3A681946FEF7F7FDFFF7B9F8034677
:10527000002B0AD1094B4FF080521A60BFF34F8FB9
:10528000BFF36F8F01E0FFF7ABF800BF1037BD46EB
:1052900080BD00BF8C0600209006002004ED00E0D9
:1052A00080B485B000AF78600E4B1B681B68002B84
:1052B00001D1012200E000227B681A607B681B6834
:1052C000002B05D1074B1B68DB681B68FB6001E006
:1052D0000023FB60FB6818461437BD465DF8047B6D
:1052E000704700BF8806002080B584B000AF7860AA
:1052F000FFF714F9F8600B4B1B68FA689A4205D265
:1053000000F03AF97B6801221A6002E07B68002213
:105310001A60044AFB681360FB6818461037BD46E4
:1053200080BD00BF9806002080B586B000AFF86051
:10533000B9607A603B6000237B61FB68BA685A60A1
:10534000FB68FA681A61BA687B689A4212D87A6870
:105350003B68D21AFB689B699A4202D301237B61A6
:105360001BE0104B1A68FB68043319461046FDF722
:1053700064FE12E07A683B689A4206D2BA683B68DB
:105380009A4202D301237B6107E0074B1A68FB684E
:10539000043319461046FDF750FE7B69184618374E
:1053A000BD4680BD8C0600208806002080B58EB0EA
:1053B00002AFCEE07B68002B19DA3B1D0433FB62A1
:1053C000FB6A002B0BD14FF0500383F31188BFF31E
:1053D0006F8FBFF34F8FFB6100BF00BFFDE7FB6A1C
:1053E0001B68FA6A5068FA6A9268114698477B68A7
:1053F000002BC0F2AE80FB68BB62BB6A5B69002B0E
:1054000004D0BB6A04331846FDF750FE3B461846ED
:10541000FFF76AFF78627B68092B00F2978001A290
:1054200052F823F04D5400084D5400084D54000824
:10543000C3540008D7540008235500084D540008F1
:105440004D540008C3540008D7540008BB6A93F8B1
:10545000283043F00103DAB2BB6A83F82820BA6827
:10546000BB6A9B69D118BB687A6AB86AFFF75CFFB0
:105470000346002B6CD0BB6A1B6AB86A9847BB6AAC
:1054800093F8283003F00403002B61D0BA68BB6A9C
:105490009B691A440023009300230021B86AFFF798
:1054A00001FE38623B6A002B52D14FF0500383F368
:1054B0001188BFF36F8FBFF34F8FBB6100BF00BF79
:1054C000FDE7BB6A93F8283023F00103DAB2BB6A28
:1054D00083F828203DE0BB6A93F8283043F00103AD
:1054E000DAB2BB6A83F82820BA68BB6A9A61BB6AE1
:1054F0009B69002B0BD14FF0500383F31188BFF34E
:105500006F8FBFF34F8F7B6100BF00BFFDE7BB6AAA
:105510009A697B6AD1187B6A7A6AB86AFFF704FFD6
:1055200017E0BB6A93F8283003F00203002B03D185
:10553000B86A00F0D9F90CE0BB6A93F8283023F080
:105540000103DAB2BB6A83F8282002E000BF00E062
:1055500000BF084B1B68391D00221846FEF7EAF809
:105560000346002B7FF426AF00BF00BF3037BD4697
:1055700080BD00BF9006002080B588B002AF49E032
:105580002E4B1B68DB681B683B612C4B1B68DB6880
:10559000DB68FB60FB6804331846FDF787FDFB689A
:1055A0001B6AF8689847FB6893F8283003F00403F7
:1055B000002B2FD0FB689B693A691344BB60BA6823
:1055C0003B699A420ED9FB68BA685A60FB68FA6870
:1055D0001A611A4B1A68FB68043319461046FDF726
:1055E0002CFD17E00023009300233A690021F8689E
:1055F000FFF758FD78607B68002B0BD14FF050030C
:1056000083F31188BFF36F8FBFF34F8F3B6000BFF1
:1056100000BFFDE7094B1B681B68002BB0D1074B8F
:105620001B687B61064B1B68044A1360044A7B6954
:10563000136000BF1837BD4680BD00BF880600203C
:105640008C06002080B582B002AF00F09DFB154BA8
:105650001B68002B20D11448FDF79EFC1348FDF772
:105660009BFC134B104A1A60124B104A1A6000231D
:105670000093114B114A10210A20FDF7ABFD0346A0
:10568000084A1360074B1B68002B05D0054B1B68AD
:105690000B491846FEF78CFB00F0A8FB00BFBD4687
:1056A00080BD00BF90060020600600207406002028
:1056B000880600208C0600203C0700209C06002065
:1056C0000065000880B500AF054B1B68FFF760FA66
:1056D0000346012B01D000F0E7FB00BF80BD00BFF7
:1056E00010E000E080B485B000AFF860B9607A6087
:1056F000FB68074A1A60BB68064A1A607B6880220A
:105700001A6000BF1437BD465DF8047B704700BFC8
:105710008C070020E807002080B485B000AFF86057
:10572000B9607A60FB68074A1A60BB68064A1A606B
:105730007B684FF480721A6000BF1437BD465DF875
:10574000047B7047E8090020440A002080B58AB035
:1057500000AF78600023FB61FEF734FE5C4B1B68F2
:10576000002B01D100F024F95A4B1A687B681340D2
:10577000002B40F095807B68002B1ED008227B68B0
:1057800013447B607B6803F00703002B15D07B6814
:1057900023F0070308337B607B6803F00703002BCB
:1057A0000BD04FF0500383F31188BFF36F8FBFF31B
:1057B0004F8F7B6100BF00BFFDE77B68002B6FD080
:1057C000454B1B687A689A426AD8444B3B62434B0C
:1057D0001B687B6204E07B6A3B627B6A1B687B62BE
:1057E0007B6A5B687A689A4203D97B6A1B68002BE4
:1057F000F1D1374B1B687A6A9A4251D03B6A1B68D9
:1058000008221344FB617B6A1A683B6A1A607B6A50
:105810005A687B68D21A08235B009A4220D97A6AB8
:105820007B681344BB61BB6903F00703002B0BD0FB
:105830004FF0500383F31188BFF36F8FBFF34F8F87
:105840003B6100BF00BFFDE77B6A5A687B68D21AE4
:10585000BB695A607B6A7A685A60B86900F00AF9D5
:105860001D4B1A687B6A5B68D31A1B4A13601A4B7C
:105870001A681B4B1B689A4203D2174B1B68184AC5
:1058800013607B6A5A68134B1B681A437B6A5A6021
:105890007B6A00221A60134B1B680133114A1360A4
:1058A000FEF79EFDFB6903F00703002B0BD04FF0C2
:1058B000500383F31188BFF36F8FBFF34F8FFB60EB
:1058C00000BF00BFFDE7FB6918462837BD4680BD15
:1058D0004C4A0020604A0020504A0020444A0020E0
:1058E000544A0020584A002080B586B000AF786046
:1058F0007B687B617B68002B4FD008235B427A6911
:1059000013447B617B693B613B695A68254B1B688B
:105910001340002B0BD14FF0500383F31188BFF3DA
:105920006F8FBFF34F8FFB6000BF00BFFDE73B6988
:105930001B68002B0BD04FF0500383F31188BFF38B
:105940006F8FBFF34F8FBB6000BF00BFFDE73B69A8
:105950005A68144B1B681340002B1ED03B691B6810
:10596000002B1AD13B695A680E4B1B68DB431A4067
:105970003B695A60FEF726FD3B695A680A4B1B6873
:105980001344094A1360386900F074F8074B1B6828
:105990000133064A1360FEF723FD00BF1837BD46EA
:1059A00080BD00BF604A0020504A00205C4A0020B1
:1059B00080B485B000AF4FF47053BB60274BFB60E1
:1059C000FB6803F00703002B0CD0FB680733FB6078
:1059D000FB6823F00703FB60BA68FB68D31A1F4A11
:1059E0001344BB60FB687B601D4A7B6813601C4BE3
:1059F00000225A607B68BA681344FB600822FB6887
:105A00009B1AFB60FB6823F00703FB60FB68154AE9
:105A10001360144B1B6800225A60124B1B68002253
:105A20001A607B683B603B68FA68D21A3B685A6030
:105A30000C4B1A683B681A603B685B680A4A136043
:105A40003B685B68094A1360094B4FF000421A60DB
:105A500000BF1437BD465DF8047B7047440E00203C
:105A6000444A00204C4A0020544A0020504A00205A
:105A7000604A002080B485B000AF7860284BFB609E
:105A800002E0FB681B68FB60FB681B687A689A424F
:105A9000F7D8FB68BB60FB685B68BA6813447A6838
:105AA0009A4208D1FB685A687B685B681A44FB68B5
:105AB0005A60FB687B607B68BB607B685B68BA6828
:105AC0001A44FB681B689A4218D1FB681A68154B88
:105AD0001B689A420DD07B685A68FB681B685B683C
